{
    "hash": "70c0205b671d625a39d359dc60df7f140553d887d5c57b4ec63f83153d3f7d5f",
    "confirmations": 1,
    "height": 103,
    "version": 536870912,
    "versionHex": "20000000",
    "merkleroot": "b2d152984fbe9828dee6aab02f5dcf50282041b76ff732e1483c85fb014143cb",
    "time": 1707733224,
    "mediantime": 1707732637,
    "nonce": 0,
    "bits": "207fffff",
    "difficulty": 4.656542373906925e-10,
    "chainwork": "00000000000000000000000000000000000000000000000000000000000000d0",
    "nTx": 2,
    "previousblockhash": "1acbfa1d9ce211b3d424089dd3623ba2f483a75508ea895e933d023fe60ed936",
    "strippedsize": 326,
    "size": 471,
    "weight": 1449,
    "tx": [
        {
            "txid": "2b7fa994101cc466ed8d4f53371f8c40e1a0a287379da714305936b72fb6023e",
            "hash": "aa68767134479fb9d34530c1d470466d96c722290914b47e382608bfe8a44a93",
            "version": 2,
            "size": 168,
            "vsize": 141,
            "weight": 564,
            "locktime": 0,
            "vin": [
                {
                    "coinbase": "016700",
                    "txinwitness": [
                        "0000000000000000000000000000000000000000000000000000000000000000"
                    ],
                    "sequence": 4294967295
                }
            ],
            "vout": [
                {
                    "value": 50.00000141,
                    "n": 0,
                    "scriptPubKey": {
                        "asm": "0 fc22896a07ec451c132a13c0d897eb510c0898a3",
                        "desc": "addr(bcrt1qls3gj6s8a3z3cye2z0qd39lt2yxq3x9r5zz3qa)#yxl7dqtc",
                        "hex": "0014fc22896a07ec451c132a13c0d897eb510c0898a3",
                        "address": "bcrt1qls3gj6s8a3z3cye2z0qd39lt2yxq3x9r5zz3qa",
                        "type": "witness_v0_keyhash"
                    }
                },
                {
                    "value": 0.00000000,
                    "n": 1,
                    "scriptPubKey": {
                        "asm": "OP_RETURN aa21a9edccf48d254931ff69f658734fa684b87b9db3164cbac7c093633cdacebd9efedb",
                        "desc": "raw(6a24aa21a9edccf48d254931ff69f658734fa684b87b9db3164cbac7c093633cdacebd9efedb)#mcrphk98",
                        "hex": "6a24aa21a9edccf48d254931ff69f658734fa684b87b9db3164cbac7c093633cdacebd9efedb",
                        "type": "nulldata"
                    }
                }
            ],
            "hex": "020000000001010000000000000000000000000000000000000000000000000000000000000000ffffffff03016700ffffffff028df2052a01000000160014fc22896a07ec451c132a13c0d897eb510c0898a30000000000000000266a24aa21a9edccf48d254931ff69f658734fa684b87b9db3164cbac7c093633cdacebd9efedb0120000000000000000000000000000000000000000000000000000000000000000000000000"
        },
        {
            "txid": "88eca1b59944bbb147812883daa1cbc261f836616a631edc8b001a5420a88623",
            "hash": "497e3be8b413f9653e376a82eb59dbc6116666a7cfb86e715c101f0f62379d45",
            "version": 1,
            "size": 222,
            "vsize": 141,
            "weight": 561,
            "locktime": 102,
            "vin": [
                {
                    "txid": "8c62288493427bcaa0c784c6b3143a05401768edf7f62083d49cde113dddc709",
                    "vout": 0,
                    "scriptSig": {
                        "asm": "",
                        "hex": ""
                    },
                    "txinwitness": [
                        "304402207fee2f9fb38d9af34e837adbc39e0ef2b5fe03430eb0041a4df2aaf2e69dfe1802201f181edee33b38a1651f283bcd5fb71e3b0e5f9848d786b2042607106711143201",
                        "02e14d1072d0a9855d492eb726196dbfca4ff9b2ec59012bcc8cf58301b4e95a1c"
                    ],
                    "sequence": 4294967294
                }
            ],
            "vout": [
                {
                    "value": 0.00010000,
                    "n": 0,
                    "scriptPubKey": {
                        "asm": "0 52ecd3c65a928168736e0e2ac7d7107e0b9b9ae6",
                        "desc": "addr(bcrt1q2tkd83j6j2qksumwpc4v04cs0c9ehxhx8gfepe)#srd0ppqt",
                        "hex": "001452ecd3c65a928168736e0e2ac7d7107e0b9b9ae6",
                        "address": "bcrt1q2tkd83j6j2qksumwpc4v04cs0c9ehxhx8gfepe",
                        "type": "witness_v0_keyhash"
                    }
                },
                {
                    "value": 0.99989859,
                    "n": 1,
                    "scriptPubKey": {
                        "asm": "0 4a37a4aa7db45a9a5d3c0b771a5af78c7eeb851d",
                        "desc": "addr(bcrt1qfgm6f2nak3df5hfupdm35khh33lwhpgavq7khf)#x9plrhng",
                        "hex": "00144a37a4aa7db45a9a5d3c0b771a5af78c7eeb851d",
                        "address": "bcrt1qfgm6f2nak3df5hfupdm35khh33lwhpgavq7khf",
                        "type": "witness_v0_keyhash"
                    }
                }
            ],
            "fee": 0.00000141,
            "hex": "0100000000010109c7dd3d11de9cd48320f6f7ed681740053a14b3c684c7a0ca7b42938428628c0000000000feffffff02102700000000000016001452ecd3c65a928168736e0e2ac7d7107e0b9b9ae663b9f505000000001600144a37a4aa7db45a9a5d3c0b771a5af78c7eeb851d0247304402207fee2f9fb38d9af34e837adbc39e0ef2b5fe03430eb0041a4df2aaf2e69dfe1802201f181edee33b38a1651f283bcd5fb71e3b0e5f9848d786b20426071067111432012102e14d1072d0a9855d492eb726196dbfca4ff9b2ec59012bcc8cf58301b4e95a1c66000000"
        }
    ]
}