{
    "hash": "1acbfa1d9ce211b3d424089dd3623ba2f483a75508ea895e933d023fe60ed936",
    "confirmations": 2,
    "height": 102,
    "version": 536870912,
    "versionHex": "20000000",
    "merkleroot": "e62a5bbc73eb004d5501e9b67fb178d8bc4cafca2b751414f94cf830c87cb4ed",
    "time": 1707732949,
    "mediantime": 1707732636,
    "nonce": 4,
    "bits": "207fffff",
    "difficulty": 4.656542373906925e-10,
    "chainwork": "00000000000000000000000000000000000000000000000000000000000000ce",
    "nTx": 2,
    "previousblockhash": "6e632bffb218094891ad022465811b0b5bf97f90fbfefb1329894da484331863",
    "nextblockhash": "70c0205b671d625a39d359dc60df7f140553d887d5c57b4ec63f83153d3f7d5f",
    "strippedsize": 326,
    "size": 471,
    "weight": 1449,
    "tx": [
        {
            "txid": "52bc402ea7dd49920980ce901d3b494eefc0db4d7579512e2592fd778d5b30f2",
            "hash": "30a34ea125893df900fa3c2d42f1fbbb053bd2c172b85743302f993f7c228466",
            "version": 2,
            "size": 168,
            "vsize": 141,
            "weight": 564,
            "locktime": 0,
            "vin": [
                {
                    "coinbase": "016600",
                    "txinwitness": [
                        "0000000000000000000000000000000000000000000000000000000000000000"
                    ],
                    "sequence": 4294967295
                }
            ],
            "vout": [
                {
                    "value": 50.00000141,
                    "n": 0,
                    "scriptPubKey": {
                        "asm": "0 c6cda29476f44e68bfb91478721ab88ba27e7e34",
                        "desc": "addr(bcrt1qcmx699rk738x30aez3u8yx4c3w38ul35huz324)#lfzy4f92",
                        "hex": "0014c6cda29476f44e68bfb91478721ab88ba27e7e34",
                        "address": "bcrt1qcmx699rk738x30aez3u8yx4c3w38ul35huz324",
                        "type": "witness_v0_keyhash"
                    }
                },
                {
                    "value": 0.00000000,
                    "n": 1,
                    "scriptPubKey": {
                        "asm": "OP_RETURN aa21a9ed5de8d7139cbccb76679398a7996f4a8984fc65cda15b830dd06c4489fc4dcff7",
                        "desc": "raw(6a24aa21a9ed5de8d7139cbccb76679398a7996f4a8984fc65cda15b830dd06c4489fc4dcff7)#mm4f6fqv",
                        "hex": "6a24aa21a9ed5de8d7139cbccb76679398a7996f4a8984fc65cda15b830dd06c4489fc4dcff7",
                        "type": "nulldata"
                    }
                }
            ],
            "hex": "020000000001010000000000000000000000000000000000000000000000000000000000000000ffffffff03016600ffffffff028df2052a01000000160014c6cda29476f44e68bfb91478721ab88ba27e7e340000000000000000266a24aa21a9ed5de8d7139cbccb76679398a7996f4a8984fc65cda15b830dd06c4489fc4dcff70120000000000000000000000000000000000000000000000000000000000000000000000000"
        },
        {
            "txid": "8c62288493427bcaa0c784c6b3143a05401768edf7f62083d49cde113dddc709",
            "hash": "936ab9158566fe9c61cc5b84ac024a005a3465f1c7bcd0a03f668655e7a960bd",
            "version": 2,
            "size": 222,
            "vsize": 141,
            "weight": 561,
            "locktime": 101,
            "vin": [
                {
                    "txid": "218d6adb42cc7cce47f120a151ab21d6b0d77ac953d20caf973134f3a879f245",
                    "vout": 0,
                    "scriptSig": {
                        "asm": "",
                        "hex": ""
                    },
                    "txinwitness": [
                        "304402205d0ddf78e2054a3fbe16b5483058c7a1fd8a9c811af90f272792adebb841341a02206be8531ae6fdf639c7dcba017fb2116a088723618bcfd1c1908bc1ddabc3425e01",
                        "02bec6ce93bfbf11e3063b702ba4386a88350b1498550393d1425d1683fd3d54f0"
                    ],
                    "sequence": 4294967293
                }
            ],
            "vout": [
                {
                    "value": 1.00000000,
                    "n": 0,
                    "scriptPubKey": {
                        "asm": "0 4a37a4aa7db45a9a5d3c0b771a5af78c7eeb851d",
                        "desc": "addr(bcrt1qfgm6f2nak3df5hfupdm35khh33lwhpgavq7khf)#x9plrhng",
                        "hex": "00144a37a4aa7db45a9a5d3c0b771a5af78c7eeb851d",
                        "address": "bcrt1qfgm6f2nak3df5hfupdm35khh33lwhpgavq7khf",
                        "type": "witness_v0_keyhash"
                    }
                },
                {
                    "value": 48.99999859,
                    "n": 1,
                    "scriptPubKey": {
                        "asm": "0 08681b16be97f62a0ff150a937c136f635b7ee1e",
                        "desc": "addr(bcrt1qpp5pk947jlmz5rl32z5n0sfk7c6m0ms78rlr8n)#2000wttq",
                        "hex": "001408681b16be97f62a0ff150a937c136f635b7ee1e",
                        "address": "bcrt1qpp5pk947jlmz5rl32z5n0sfk7c6m0ms78rlr8n",
                        "type": "witness_v0_keyhash"
                    }
                }
            ],
            "fee": 0.00000141,
            "hex": "0200000000010145f279a8f3343197af0cd253c97ad7b0d621ab51a120f147ce7ccc42db6a8d210000000000fdffffff0200e1f505000000001600144a37a4aa7db45a9a5d3c0b771a5af78c7eeb851d731010240100000016001408681b16be97f62a0ff150a937c136f635b7ee1e0247304402205d0ddf78e2054a3fbe16b5483058c7a1fd8a9c811af90f272792adebb841341a02206be8531ae6fdf639c7dcba017fb2116a088723618bcfd1c1908bc1ddabc3425e012102bec6ce93bfbf11e3063b702ba4386a88350b1498550393d1425d1683fd3d54f065000000"
        }
    ]
}