{
    "hash": "5ca2898230fe3a150cd3cd7cb4555af87f12d388e7e0f78d0ad3c9986f9b0418",
    "confirmations": 4,
    "height": 100,
    "version": 536870912,
    "versionHex": "20000000",
    "merkleroot": "5da96909685144dd3d3bf622812dd5d066efb77b0dc948f00bd38f10f5dc52e2",
    "time": 1707732637,
    "mediantime": 1707732636,
    "nonce": 0,
    "bits": "207fffff",
    "difficulty": 4.656542373906925e-10,
    "chainwork": "00000000000000000000000000000000000000000000000000000000000000ca",
    "nTx": 1,
    "previousblockhash": "1de0c651c2705bed7ee644de865bab7ca31cfc0e23085c718042891e2a0f7162",
    "nextblockhash": "6e632bffb218094891ad022465811b0b5bf97f90fbfefb1329894da484331863",
    "strippedsize": 213,
    "size": 249,
    "weight": 888,
    "tx": [
        {
            "txid": "5da96909685144dd3d3bf622812dd5d066efb77b0dc948f00bd38f10f5dc52e2",
            "hash": "e3fa262924cec97203321bdd3ae3effd0e55112b67206c2d4ef046c16fc6ef75",
            "version": 2,
            "size": 168,
            "vsize": 141,
            "weight": 564,
            "locktime": 0,
            "vin": [
                {
                    "coinbase": "016400",
                    "txinwitness": [
                        "0000000000000000000000000000000000000000000000000000000000000000"
                    ],
                    "sequence": 4294967295
                }
            ],
            "vout": [
                {
                    "value": 50.00000000,
                    "n": 0,
                    "scriptPubKey": {
                        "asm": "0 c6b5b5b4968580ad3ff54f93010df1e9a1c691f3",
                        "desc": "addr(bcrt1qc66mtdykskq260l4f7fszr03axsudy0nma9pev)#ncky76ss",
                        "hex": "0014c6b5b5b4968580ad3ff54f93010df1e9a1c691f3",
                        "address": "bcrt1qc66mtdykskq260l4f7fszr03axsudy0nma9pev",
                        "type": "witness_v0_keyhash"
                    }
                },
                {
                    "value": 0.00000000,
                    "n": 1,
                    "scriptPubKey": {
                        "asm": "OP_RETURN aa21a9ede2f61c3f71d1defd3fa999dfa36953755c690689799962b48bebd836974e8cf9",
                        "desc": "raw(6a24aa21a9ede2f61c3f71d1defd3fa999dfa36953755c690689799962b48bebd836974e8cf9)#cav96mf3",
                        "hex": "6a24aa21a9ede2f61c3f71d1defd3fa999dfa36953755c690689799962b48bebd836974e8cf9",
                        "type": "nulldata"
                    }
                }
            ],
            "hex": "020000000001010000000000000000000000000000000000000000000000000000000000000000ffffffff03016400ffffffff0200f2052a01000000160014c6b5b5b4968580ad3ff54f93010df1e9a1c691f30000000000000000266a24aa21a9ede2f61c3f71d1defd3fa999dfa36953755c690689799962b48bebd836974e8cf90120000000000000000000000000000000000000000000000000000000000000000000000000"
        }
    ]
}